{
  "_format": "hh-sol-artifact-1",
  "contractName": "BirthRegistration",
  "sourceName": "contracts/BirthRegistration.sol",
  "abi": [
    {
      "anonymous": false,
      "inputs": [
        {
          "indexed": true,
          "internalType": "uint256",
          "name": "itemId",
          "type": "uint256"
        },
        {
          "indexed": false,
          "internalType": "bytes32",
          "name": "blockHash",
          "type": "bytes32"
        }
      ],
      "name": "Registration",
      "type": "event"
    },
    {
      "inputs": [
        {
          "internalType": "bytes32",
          "name": "_blockHash",
          "type": "bytes32"
        }
      ],
      "name": "checkBlockHash",
      "outputs": [
        {
          "internalType": "bool",
          "name": "",
          "type": "bool"
        }
      ],
      "stateMutability": "view",
      "type": "function"
    },
    {
      "inputs": [
        {
          "internalType": "uint256",
          "name": "",
          "type": "uint256"
        }
      ],
      "name": "details",
      "outputs": [
        {
          "internalType": "string",
          "name": "name",
          "type": "string"
        },
        {
          "internalType": "string",
          "name": "dob",
          "type": "string"
        },
        {
          "internalType": "string",
          "name": "gender",
          "type": "string"
        },
        {
          "internalType": "string",
          "name": "location",
          "type": "string"
        },
        {
          "internalType": "string",
          "name": "grandFatherName",
          "type": "string"
        },
        {
          "internalType": "string",
          "name": "fatherName",
          "type": "string"
        },
        {
          "internalType": "string",
          "name": "motherName",
          "type": "string"
        },
        {
          "internalType": "uint256",
          "name": "timestamp",
          "type": "uint256"
        },
        {
          "internalType": "bytes32",
          "name": "blockHash",
          "type": "bytes32"
        }
      ],
      "stateMutability": "view",
      "type": "function"
    },
    {
      "inputs": [],
      "name": "getAllDetails",
      "outputs": [
        {
          "components": [
            {
              "internalType": "string",
              "name": "name",
              "type": "string"
            },
            {
              "internalType": "string",
              "name": "dob",
              "type": "string"
            },
            {
              "internalType": "string",
              "name": "gender",
              "type": "string"
            },
            {
              "internalType": "string",
              "name": "location",
              "type": "string"
            },
            {
              "internalType": "string",
              "name": "grandFatherName",
              "type": "string"
            },
            {
              "internalType": "string",
              "name": "fatherName",
              "type": "string"
            },
            {
              "internalType": "string",
              "name": "motherName",
              "type": "string"
            },
            {
              "internalType": "uint256",
              "name": "timestamp",
              "type": "uint256"
            },
            {
              "internalType": "bytes32",
              "name": "blockHash",
              "type": "bytes32"
            }
          ],
          "internalType": "struct BirthRegistration.Detail[]",
          "name": "",
          "type": "tuple[]"
        }
      ],
      "stateMutability": "view",
      "type": "function"
    },
    {
      "inputs": [],
      "name": "itemCount",
      "outputs": [
        {
          "internalType": "uint256",
          "name": "",
          "type": "uint256"
        }
      ],
      "stateMutability": "view",
      "type": "function"
    },
    {
      "inputs": [
        {
          "internalType": "string",
          "name": "_name",
          "type": "string"
        },
        {
          "internalType": "string",
          "name": "_dob",
          "type": "string"
        },
        {
          "internalType": "string",
          "name": "_gender",
          "type": "string"
        },
        {
          "internalType": "string",
          "name": "_location",
          "type": "string"
        },
        {
          "internalType": "string",
          "name": "_grandFatherName",
          "type": "string"
        },
        {
          "internalType": "string",
          "name": "_fatherName",
          "type": "string"
        },
        {
          "internalType": "string",
          "name": "_motherName",
          "type": "string"
        }
      ],
      "name": "register",
      "outputs": [],
      "stateMutability": "nonpayable",
      "type": "function"
    }
  ],
  "bytecode": "0x608060405234801561001057600080fd5b506117a5806100206000396000f3fe608060405234801561001057600080fd5b50600436106100575760003560e01c80636bfb0d011461005c5780639d0c9fca1461007a578063a005ec7a14610096578063ccc5d7d4146100ce578063d0c5c113146100ec575b600080fd5b61006461011c565b6040516100719190610c48565b60405180910390f35b610094600480360381019061008f9190610dbd565b610122565b005b6100b060048036038101906100ab9190610f4f565b61029d565b6040516100c599989796959493929190611014565b60405180910390f35b6100d66106a3565b6040516100e391906112eb565b60405180910390f35b61010660048036038101906101019190611339565b610b84565b6040516101139190611381565b60405180910390f35b60015481565b60016000815480929190610135906113cb565b91905055506040518061012001604052808881526020018781526020018681526020018581526020018481526020018381526020018281526020014281526020016001436101839190611413565b40815250600080600154815260200190815260200160002060008201518160000190816101b09190611653565b5060208201518160010190816101c69190611653565b5060408201518160020190816101dc9190611653565b5060608201518160030190816101f29190611653565b5060808201518160040190816102089190611653565b5060a082015181600501908161021e9190611653565b5060c08201518160060190816102349190611653565b5060e0820151816007015561010082015181600801559050506001547f45f9d4b65f629195b38111e08eaa05d12eac4feef1fe0719f3ef21a51cd78ac460014361027e9190611413565b4060405161028c9190611725565b60405180910390a250505050505050565b60006020528060005260406000206000915090508060000180546102c090611476565b80601f01602080910402602001604051908101604052809291908181526020018280546102ec90611476565b80156103395780601f1061030e57610100808354040283529160200191610339565b820191906000526020600020905b81548152906001019060200180831161031c57829003601f168201915b50505050509080600101805461034e90611476565b80601f016020809104026020016040519081016040528092919081815260200182805461037a90611476565b80156103c75780601f1061039c576101008083540402835291602001916103c7565b820191906000526020600020905b8154815290600101906020018083116103aa57829003601f168201915b5050505050908060020180546103dc90611476565b80601f016020809104026020016040519081016040528092919081815260200182805461040890611476565b80156104555780601f1061042a57610100808354040283529160200191610455565b820191906000526020600020905b81548152906001019060200180831161043857829003601f168201915b50505050509080600301805461046a90611476565b80601f016020809104026020016040519081016040528092919081815260200182805461049690611476565b80156104e35780601f106104b8576101008083540402835291602001916104e3565b820191906000526020600020905b8154815290600101906020018083116104c657829003601f168201915b5050505050908060040180546104f890611476565b80601f016020809104026020016040519081016040528092919081815260200182805461052490611476565b80156105715780601f1061054657610100808354040283529160200191610571565b820191906000526020600020905b81548152906001019060200180831161055457829003601f168201915b50505050509080600501805461058690611476565b80601f01602080910402602001604051908101604052809291908181526020018280546105b290611476565b80156105ff5780601f106105d4576101008083540402835291602001916105ff565b820191906000526020600020905b8154815290600101906020018083116105e257829003601f168201915b50505050509080600601805461061490611476565b80601f016020809104026020016040519081016040528092919081815260200182805461064090611476565b801561068d5780601f106106625761010080835404028352916020019161068d565b820191906000526020600020905b81548152906001019060200180831161067057829003601f168201915b5050505050908060070154908060080154905089565b6060600060015467ffffffffffffffff8111156106c3576106c2610c92565b5b6040519080825280602002602001820160405280156106fc57816020015b6106e9610be0565b8152602001906001900390816106e15790505b5090506000600190505b6001548111610b7c576000808281526020019081526020016000206040518061012001604052908160008201805461073d90611476565b80601f016020809104026020016040519081016040528092919081815260200182805461076990611476565b80156107b65780601f1061078b576101008083540402835291602001916107b6565b820191906000526020600020905b81548152906001019060200180831161079957829003601f168201915b505050505081526020016001820180546107cf90611476565b80601f01602080910402602001604051908101604052809291908181526020018280546107fb90611476565b80156108485780601f1061081d57610100808354040283529160200191610848565b820191906000526020600020905b81548152906001019060200180831161082b57829003601f168201915b5050505050815260200160028201805461086190611476565b80601f016020809104026020016040519081016040528092919081815260200182805461088d90611476565b80156108da5780601f106108af576101008083540402835291602001916108da565b820191906000526020600020905b8154815290600101906020018083116108bd57829003601f168201915b505050505081526020016003820180546108f390611476565b80601f016020809104026020016040519081016040528092919081815260200182805461091f90611476565b801561096c5780601f106109415761010080835404028352916020019161096c565b820191906000526020600020905b81548152906001019060200180831161094f57829003601f168201915b5050505050815260200160048201805461098590611476565b80601f01602080910402602001604051908101604052809291908181526020018280546109b190611476565b80156109fe5780601f106109d3576101008083540402835291602001916109fe565b820191906000526020600020905b8154815290600101906020018083116109e157829003601f168201915b50505050508152602001600582018054610a1790611476565b80601f0160208091040260200160405190810160405280929190818152602001828054610a4390611476565b8015610a905780601f10610a6557610100808354040283529160200191610a90565b820191906000526020600020905b815481529060010190602001808311610a7357829003601f168201915b50505050508152602001600682018054610aa990611476565b80601f0160208091040260200160405190810160405280929190818152602001828054610ad590611476565b8015610b225780601f10610af757610100808354040283529160200191610b22565b820191906000526020600020905b815481529060010190602001808311610b0557829003601f168201915b505050505081526020016007820154815260200160088201548152505082600183610b4d9190611413565b81518110610b5e57610b5d611740565b5b60200260200101819052508080610b74906113cb565b915050610706565b508091505090565b60008060015490506000600190505b818111610bd457836000808381526020019081526020016000206008015403610bc157600192505050610bdb565b8080610bcc906113cb565b915050610b93565b5060009150505b919050565b6040518061012001604052806060815260200160608152602001606081526020016060815260200160608152602001606081526020016060815260200160008152602001600080191681525090565b6000819050919050565b610c4281610c2f565b82525050565b6000602082019050610c5d6000830184610c39565b92915050565b6000604051905090565b600080fd5b600080fd5b600080fd5b600080fd5b6000601f19601f8301169050919050565b7f4e487b7100000000000000000000000000000000000000000000000000000000600052604160045260246000fd5b610cca82610c81565b810181811067ffffffffffffffff82111715610ce957610ce8610c92565b5b80604052505050565b6000610cfc610c63565b9050610d088282610cc1565b919050565b600067ffffffffffffffff821115610d2857610d27610c92565b5b610d3182610c81565b9050602081019050919050565b82818337600083830152505050565b6000610d60610d5b84610d0d565b610cf2565b905082815260208101848484011115610d7c57610d7b610c7c565b5b610d87848285610d3e565b509392505050565b600082601f830112610da457610da3610c77565b5b8135610db4848260208601610d4d565b91505092915050565b600080600080600080600060e0888a031215610ddc57610ddb610c6d565b5b600088013567ffffffffffffffff811115610dfa57610df9610c72565b5b610e068a828b01610d8f565b975050602088013567ffffffffffffffff811115610e2757610e26610c72565b5b610e338a828b01610d8f565b965050604088013567ffffffffffffffff811115610e5457610e53610c72565b5b610e608a828b01610d8f565b955050606088013567ffffffffffffffff811115610e8157610e80610c72565b5b610e8d8a828b01610d8f565b945050608088013567ffffffffffffffff811115610eae57610ead610c72565b5b610eba8a828b01610d8f565b93505060a088013567ffffffffffffffff811115610edb57610eda610c72565b5b610ee78a828b01610d8f565b92505060c088013567ffffffffffffffff811115610f0857610f07610c72565b5b610f148a828b01610d8f565b91505092959891949750929550565b610f2c81610c2f565b8114610f3757600080fd5b50565b600081359050610f4981610f23565b92915050565b600060208284031215610f6557610f64610c6d565b5b6000610f7384828501610f3a565b91505092915050565b600081519050919050565b600082825260208201905092915050565b60005b83811015610fb6578082015181840152602081019050610f9b565b60008484015250505050565b6000610fcd82610f7c565b610fd78185610f87565b9350610fe7818560208601610f98565b610ff081610c81565b840191505092915050565b6000819050919050565b61100e81610ffb565b82525050565b600061012082019050818103600083015261102f818c610fc2565b90508181036020830152611043818b610fc2565b90508181036040830152611057818a610fc2565b9050818103606083015261106b8189610fc2565b9050818103608083015261107f8188610fc2565b905081810360a08301526110938187610fc2565b905081810360c08301526110a78186610fc2565b90506110b660e0830185610c39565b6110c4610100830184611005565b9a9950505050505050505050565b600081519050919050565b600082825260208201905092915050565b6000819050602082019050919050565b600082825260208201905092915050565b600061111a82610f7c565b61112481856110fe565b9350611134818560208601610f98565b61113d81610c81565b840191505092915050565b61115181610c2f565b82525050565b61116081610ffb565b82525050565b6000610120830160008301518482036000860152611184828261110f565b9150506020830151848203602086015261119e828261110f565b915050604083015184820360408601526111b8828261110f565b915050606083015184820360608601526111d2828261110f565b915050608083015184820360808601526111ec828261110f565b91505060a083015184820360a0860152611206828261110f565b91505060c083015184820360c0860152611220828261110f565b91505060e083015161123560e0860182611148565b5061010083015161124a610100860182611157565b508091505092915050565b60006112618383611166565b905092915050565b6000602082019050919050565b6000611281826110d2565b61128b81856110dd565b93508360208202850161129d856110ee565b8060005b858110156112d957848403895281516112ba8582611255565b94506112c583611269565b925060208a019950506001810190506112a1565b50829750879550505050505092915050565b600060208201905081810360008301526113058184611276565b905092915050565b61131681610ffb565b811461132157600080fd5b50565b6000813590506113338161130d565b92915050565b60006020828403121561134f5761134e610c6d565b5b600061135d84828501611324565b91505092915050565b60008115159050919050565b61137b81611366565b82525050565b60006020820190506113966000830184611372565b92915050565b7f4e487b7100000000000000000000000000000000000000000000000000000000600052601160045260246000fd5b60006113d682610c2f565b91507fffffffffffffffffffffffffffffffffffffffffffffffffffffffffffffffff82036114085761140761139c565b5b600182019050919050565b600061141e82610c2f565b915061142983610c2f565b92508282039050818111156114415761144061139c565b5b92915050565b7f4e487b7100000000000000000000000000000000000000000000000000000000600052602260045260246000fd5b6000600282049050600182168061148e57607f821691505b6020821081036114a1576114a0611447565b5b50919050565b60008190508160005260206000209050919050565b60006020601f8301049050919050565b600082821b905092915050565b6000600883026115097fffffffffffffffffffffffffffffffffffffffffffffffffffffffffffffffff826114cc565b61151386836114cc565b95508019841693508086168417925050509392505050565b6000819050919050565b600061155061154b61154684610c2f565b61152b565b610c2f565b9050919050565b6000819050919050565b61156a83611535565b61157e61157682611557565b8484546114d9565b825550505050565b600090565b611593611586565b61159e818484611561565b505050565b5b818110156115c2576115b760008261158b565b6001810190506115a4565b5050565b601f821115611607576115d8816114a7565b6115e1846114bc565b810160208510156115f0578190505b6116046115fc856114bc565b8301826115a3565b50505b505050565b600082821c905092915050565b600061162a6000198460080261160c565b1980831691505092915050565b60006116438383611619565b9150826002028217905092915050565b61165c82610f7c565b67ffffffffffffffff81111561167557611674610c92565b5b61167f8254611476565b61168a8282856115c6565b600060209050601f8311600181146116bd57600084156116ab578287015190505b6116b58582611637565b86555061171d565b601f1984166116cb866114a7565b60005b828110156116f3578489015182556001820191506020850194506020810190506116ce565b86831015611710578489015161170c601f891682611619565b8355505b6001600288020188555050505b505050505050565b600060208201905061173a6000830184611005565b92915050565b7f4e487b7100000000000000000000000000000000000000000000000000000000600052603260045260246000fdfea26469706673582212201a9a99ae2c1ed94dc82a7a1a79f58a6414610833799923fdb3454fcc0861d5f464736f6c63430008120033",
  "linkReferences": {},
  "deployedLinkReferences": {}
}